:020000040800F2
:10000000C05200205D020008EF3B0008C135000827
:10001000ED3B0008B90A0008D54A000800000000BE
:100020000000000000000000000000009D0100082A
:10003000690C000800000000F9010008B53F000845
:1000400077020008770200087702000877020008AC
:1000500077020008770200086B0C0008770200089E
:10006000770200087702000877020008770200088C
:10007000770200087702000877020008770200087C
:10008000950B0008A10B0008770200087702000812
:10009000BD0A00087702000877020008770200080E
:1000A000770200087702000877020008770200084C
:1000B000770200087702000877020008770200083C
:1000C000770200087702000877020008770200082C
:1000D00077020008014A0008C94A000877020008B0
:1000E000770200087702000877020008770200080C
:1000F000A540000899400008770200087702000830
:1001000077020008770200087702000877020008EB
:10011000AD45000877020008814000088D400008C6
:100120007702000877020008AD0B0008770200088C
:1001300077020008770200087702000877020008BB
:1001400077020008770200087702000877020008AB
:100150007702000877020008B90B00087702000850
:10016000770200087702000877020008770200088B
:1001700077020008770200087702000800000000FC
:100180007702000877020008DFF80CD000F0D0FBFF
:1001900000480047D9640008C05200202C4B196861
:1001A0000868B0E8F04F80F30988BFF36F8F4FF015
:1001B000000080F3118870470000000008480068C4
:1001C000006880F308884FF0000080F3148862B65E
:1001D00061B6BFF34F8FBFF36F8F00DF00BF00BF6B
:1001E00008ED00E0DFF80C00016841F470010160E7
:1001F000704700BF88ED00E0EFF30980BFF36F8F19
:10020000134B1A681EF0100F08BF20ED108A20E96A
:10021000F04F106009B44FF0500080F31188BFF325
:100220004F8FBFF36F8F08F067FF4FF0000080F330
:10023000118809BC19680868B0E8F04F1EF0100F6B
:1002400008BFB0EC108A80F30988BFF36F8F704746
:1002500014010020EFF30580704700000648804736
:1002600006480047FEE7FEE7FEE7FEE7FEE7FEE79B
:10027000FEE7FEE7FEE7FEE76540000889010008AB
:100280002DE9F05F0546002092469B4688460646CB
:10029000814640241BE0284641464746224600F05E
:1002A00090FA53465A46C01A914110D31146184647
:1002B000224600F077FA2D1A67EB01084F462246D6
:1002C0000120002100F06EFA17EB00094E41201EBC
:1002D000A4F10104DFDC484631462A464346BDE826
:1002E000F09F40EA01039B0703D009E008C9121FF1
:1002F00008C0042AFAD203E011F8013B00F8013BE0
:10030000521EF9D27047D2B201E000F8012B491E0B
:10031000FBD270470022F6E710B513460A460446A2
:100320001946FFF7F0FF204610BD2DE9FE4F80462D
:1003300081EA0300C00F0C46009021F0004123F039
:100340000045B8EB0200A94105D24046214690463F
:100350001C460B46024623F00040104347D0270DB1
:10036000C7F30A00C3F30A510290401A01904028D3
:100370006BDAC3F3130040F4801B0098924620B15F
:100380000023D2EB030A63EB0B0B01985946C0F133
:100390004002504600F006FA06460D4650465946C1
:1003A000019A00F01EFA10EB08006141002487EA70
:1003B000115284EAE7731A4340D0009A62B3019A5B
:1003C000012A4FEA075215DC001B61EB02014FF0D6
:1003D000004202EA0752CDE90042001C41F58011BB
:1003E00032462B4600F055FA03B0BDE8F08F404688
:1003F0002146F9E7001B61EB0201001C41F5801367
:1004000000185B412018A2F5001747EB030140EAF2
:10041000D570B6196D4111E06D084FEA360645EA10
:10042000C0754FEA0752001B61EB0201001C41F549
:10043000801149084FEA30000019514132462B46DD
:1004400003B0BDE8F04F00F015BA0098012240005B
:100450000023D0EB020263EBE073009821464FEAE1
:10046000E074B8EB000061EB0401E9E783F00043BE
:100470005BE781F0004158E72DE9FE4F81EA030474
:1004800004F0004421F0004100944FF0000B23F0F1
:10049000004350EA01045ED052EA03045BD0C3F388
:1004A0000A54C1F30A552C44A4F2F3340194A0FB7E
:1004B0000254C1F3130141F48011C3F3130343F455
:1004C000801301FB024400FB034E840A970A44EAAE
:1004D000815447EA8357A4FB076802958D0A05FB00
:1004E00007854FEA932C04FB0C542705029D4FEA25
:1004F000065847EA1637B5EB08056EEB070C870E72
:10050000920E47EA811742EA8312A7FB0201B6EB7B
:100510000B0164EB00042B0D43EA0C335E1844EB33
:100520001C50DA465146E7FB0201C5F313044FEABB
:100530000B3343EA14534FEA0432019C43EA0603A7
:10054000A4F10C040294009CCDE900B400F0A1F9E0
:1005500003B0BDE8F08F00200146F9E72DE9F04D2A
:1005600081EA030404F0004B21F0004514464FF0EB
:10057000000A23F0004150EA050220D054EA0102AB
:100580001DD0C5F30A570246C5F31303C1F3130088
:10059000C1F30A5640F4801543F48013A7EB060814
:1005A000101BD64608F2FD3873EB050002D308F1A4
:1005B000010801E092185B41B8F1000F03DA002056
:1005C0000146BDE8F08D00204FF4801106468446B8
:1005D0000EE0171B73EB050705D3121B63EB050336
:1005E00006434CEA010C49084FEA300092185B417F
:1005F00050EA0107EDD152EA030012D082EA04006A
:1006000083EA0501084305D0101BAB4106D2012245
:10061000002306E000224FF0004302E06FF00102E9
:1006200053101AEB06004CEB085110EB0A0041EB9B
:100630000B01BDE8F04D00F01DB90EB5C10F80EA09
:10064000E0700844CA07002140F233438DE80E00F1
:100650000A460B4600F01DF903B000BD0EB540F28E
:10066000334102910021CDE900110A460B4600F00A
:1006700010F903B000BD70B5C1F30A5201F0004596
:100680000024C1F3130140F2FF3341F480119A4278
:1006900001DA002070BD40F233439A42A2F23342A5
:1006A00003DC524200F08DF800E090402C43F1D082
:1006B000404270BDC1F30A5210B5C1F3130140F2BC
:1006C000FF3341F480119A4201DA002010BD40F25C
:1006D00033439A42A2F2334203DC524200F071F8F3
:1006E00010BD904010BD00F0004230F000400AD034
:1006F000C10D01F56071C0F3160042EA0151C20854
:1007000040071143704700200146704730B5041E72
:1007100071F1000404DB4FF00044404264EB01013E
:10072000141E73F1000405DB1C464FF000435242D7
:1007300063EB04038B4208BF824230BD30B5041E18
:1007400071F1000404DB4FF00044404264EB01010E
:10075000141E73F1000405DB1C464FF000435242A7
:1007600063EB0403994208BF904230BD01F000439F
:1007700030B421F0004150EA010206D00A0DA2F582
:100780006072C1F31301002A02DC30BC0020704704
:10079000440F44EAC104C100E01830BC00EBC25071
:1007A00000F031B8202A04DB203A00FA02F10020E0
:1007B00070479140C2F1200320FA03F3194390409F
:1007C0007047202A04DB203A21FA02F0002170470A
:1007D00021FA02F3D040C2F12002914008431946A9
:1007E0007047202A06DBCB17203A41FA02F043EA91
:1007F000E07306E041FA02F3D040C2F120029140DA
:100800000843194670470029A8BF7047401C49009B
:1008100008BF20F00100704710B4B0FA80FC00FA65
:100820000CF050EA010404BF10BC704749B1CCF190
:10083000200421FA04F411FA0CF118BF012121431C
:100840000843A3EB0C01CB1D4FEA00614FEA1020D7
:1008500042BF002010BC704700EBC3501044002979
:10086000A4BF10BC7047401C490008BF20F0010025
:1008700010BC704710B5141E73F1000408DA401C58
:1008800041F1000192185B411A4301D120F00100AF
:1008900010BD2DE9F04D92469B4611B1B1FA81F29F
:1008A00002E0B0FA80F220329046FFF77BFF044668
:1008B0000F4640EA0A0041EA0B0153465A460843F4
:1008C00013D0114653EA010019D0C8F14002504636
:1008D000FFF777FF05460E46504659464246FFF75A
:1008E00061FF084305D0012004E020463946BDE8F9
:1008F000F08D0020054346EAE0762C4337430A9802
:100900006305E40AA0EB08000022FD0A44EA47540C
:100910000A3002D500200146E9E7010510196941B6
:10092000DDE9084500196941BDE8F04DA2E7000086
:10093000064C074D06E0E06840F0010394E807002C
:1009400098471034AC42F6D3FFF722FCF8BA0008FF
:1009500018BB000830B58C1810F8012B12F00F03EB
:1009600001D110F8013B120906D110F8012B03E068
:1009700010F8015B01F8015B5B1EF9D101E001F8A1
:10098000013B521EFBD1A142E6D3002030BD000046
:10099000464910B54A6822F440324A604A684368C2
:1009A0001A434A6001684A6822F480724A6001680A
:1009B0004A68036942EA03224A6001684A6822F0F1
:1009C00040724A6001684A6883681A434A60016855
:1009D0008A6822F400628A6001688A68C3681A43E0
:1009E0008A60816A6FF07062D14201688A6822F081
:1009F00070628A6001688A680CD0836A1A438A60D0
:100A000001688A6822F040528A6001688A68C36A75
:100A10001A4301E022F040528A6001688A6822F09D
:100A200002028A6001688A68037E42EA43028A60A1
:100A300090F82010002901684A680FD042F4006243
:100A40004A6001684A6822F460424A6001684A6864
:100A5000174C436A04EB43331A4301E022F400626B
:100A60004A600168CA6A22F47002CA620168CA6AEE
:100A7000838B104C04EB03531A43CA6201688A68E3
:100A800022F400728A6001688A6890F8303042EA85
:100A900043228A6001688A6822F480628A60016861
:100AA0008A68406942EA8020886010BD00230140C6
:100AB00000E0FFFF0000F0FFFEE70000014800F04B
:100AC00030BD000018040020314A10B52F4953787A
:100AD000C8545B1CD8B250700C780023552C53D1ED
:100AE0000B2852D3487850380A284DD2DFE800F05E
:100AF000050D151D252D353B414751F8020FC2F854
:100B000002004868C2F806003EE051F8020FC2F841
:100B10000A004868C2F80E0036E051F8020FC2F829
:100B200012004868C2F816002EE051F8020FC2F811
:100B30001A004868C2F81E0026E051F8020FC2F8F9
:100B400022004868C2F826001EE051F8020FC2F8E1
:100B50002A004868C2F82E0016E051F8020F5063D0
:100B60004868906310E051F8020FD0634868106441
:100B70000AE051F8020F50644868906404E051F8AC
:100B8000020FD06448681065537010BD340B00200C
:100B900094000020014800F055BF000034070020F9
:100BA000014800F04FBF000094070020014800F00A
:100BB00049BF000074060020014800F043BF000058
:100BC000D406002001681823CAB2103AB2FBF3F22F
:100BD000054B6FF30901032A9B5CC36500D9091D0E
:100BE0008165084670470000C0BA000810B501468C
:100BF00000208B698A6A4FF0C07453B1B3F5005F6F
:100C000015D072B1012A0CD0022A0AD0032A09D1C8
:100C100004E01AB1012A06D0022A03D1C96AC90127
:100C200000D5012010BDC96AA142FAD010BD002A2A
:100C3000F7D0012AF2D0022AF3D0032AF3D010BD54
:100C400030B50468256825F4802525600468636054
:100C50008368402B036803D099600068C26030BD90
:100C60009A600068C16030BD7047012001F01AB978
:100C700070470000002229B101291AD002291BD097
:100C80004FF440720E490B6823F440730B600B68FD
:100C900013430B600A6822F0F8020A600A68022314
:100CA00003EBC00002430A60086840F4803008602B
:100CB00070474FF48072E5E74FF40072E2E70000FE
:100CC000103C02401348016889050FD5016821F4E2
:100CD00000710160016841F400610160016821F464
:100CE00000610160016841F400710160016849051B
:100CF0000FD5016821F480610160016841F48051E1
:100D00000160016821F480510160016841F4806153
:100D100001607047003C024008490A6822F44072B2
:100D20000A600A6842F004020A600A684FF48033DD
:100D300043EA002002430A6070470000103C024072
:100D4000064A136823F44073136013681360136832
:100D500043F001031360017070470000103C024033
:100D6000094910B50C6824F440740C600C6844F414
:100D700040740C600C6844F001040C600260BFF326
:100D80006F8F436010BD0000103C0240074A13689B
:100D900023F440731360136843F480731360136883
:100DA00043F001031360018070470000103C0240D3
:100DB000074A136823F440731360136843F4007305
:100DC0001360136843F00103136001607047000073
:100DD000103C024017490868C206174805D5C26989
:100DE00042F01002C26110220A600A68920605D51C
:100DF000C26942F00802C26120220A600A685206F3
:100E000005D5C26942F00402C26140220A600A6844
:100E1000120605D5C26942F00202C26180220A6050
:100E20000A68920705D5C26942F02002C261022019
:100E3000086070470C3C0240AC11002070B51149AD
:100E400004460020C86101F043F906460E4D09E052
:100E5000601C07D024B101F03BF9801BA04201D9EE
:100E6000032070BD2868C003F2D42868C00701D0F1
:100E700001202860286810F0F200F2D0FFF7AAFFE6
:100E8000012070BDAC1100200C3C024078B500245C
:100E9000009490F83C20012A19D0012280F83C20CF
:100EA0000A6807230568092A13D9EE680A3A02EB93
:100EB000420293409E43EE600B788A680A3B03EB44
:100EC00043039A400368DD682A43DA6010E0022099
:100ED00078BD2E6902EB420293409E432E610B784F
:100EE0008A6803EB43039A4003681D692A431A6129
:100EF0004A681F23072A13D205686E6B521E02EB45
:100F0000820293409E436E630B790A885B1E92B205
:100F100003EB83039A4003685D6B2A435A6327E01F
:100F200005680D2A12D22E6BD21F02EB820293406B
:100F30009E432E630B790A88DB1F92B203EB830377
:100F40009A4003681D6B2A431A6311E0EE6A0D3A5A
:100F500002EB820293409E43EE620B790A880D3BBE
:100F600092B203EB83039A400368DD6A2A43DA6294
:100F7000164B0568144A9D4206D10D68122D03D107
:100F8000556845F48005556005689D4218D10B6889
:100F9000102B01D0112B13D1536843F4000353607D
:100FA000096810290CD10A490A4A0968B1FBF2F113
:100FB00001EB8101490000E0491E00910029FBD1AD
:100FC00080F83C40002078BD002301400020014013
:100FD0001001002040420F00006C70470068C06C98
:100FE000704770B504004FF0000503D0206C002658
:100FF00010B107E0012070BD204600F01DF86664C6
:1010000084F83C60206CC00610D4206C20F488501A
:1010100040F0020020642046FFF7BAFC6664206CB2
:1010200020F0020040F00100206400E0012584F877
:101030003C60284670BD000010B586B004461421FF
:101040006846FFF767F91149206888421CD11048AB
:101050000021026842F480720260006800F480702F
:1010600005900B481438026842F0010202600068E3
:1010700000F001000590802000900320CDE90101DF
:101080006946044800F01AFF06B010BD0020014078
:1010900044380240000002402DE9F0410446006857
:1010A0000D4681684FF0000749050BD58068C005E3
:1010B00008D5206C40F02000206484F83C700120AA
:1010C000BDE8F08101F004F8064613E0681C11D079
:1010D00025B100F0FDFF801BA8420BD920680068F5
:1010E000800707D4206C40F00400206484F83C7032
:1010F0000320E5E7206800688007E7D521686FF0E6
:1011000012000860206C40F4007020642068816840
:1011100011F0405F13D1217E89B9C16A11F4700FBB
:1011200002D0806840050AD4206C20F480702064CE
:10113000206CC00403D4206C40F001002064002027
:10114000BEE7000018B50021009190F83C20012A6C
:1011500007D0012280F83C2002689368DB0702D0A8
:1011600011E0022018BD936843F0010393602E4AFA
:101170002E4B1268B2FBF3F202EB420200E0521E69
:101180000092002AFBD102689368DB0742D0036C0F
:1011900040F20164A34343F48073036453685B0526
:1011A00005D5036C23F4005343F480530364036CAC
:1011B000DB0404D5436C23F00603436400E0416480
:1011C00080F83C101A496FF02203136049680068E8
:1011D000CA06184906D0884224D1816811F0405FC0
:1011E00013D01FE08842F8D0134A904203D1D1F8BF
:1011F0000423D206F1D0114A904213D1D1F804133E
:1012000001F01F011029E8D30CE0816841F0804112
:10121000816007E0016C41F010010164416C41F014
:1012200001014164002018BD1001002040420F0060
:101230000023014000200140002101400022014024
:1012400090F82020012A07D0022A05D0416A41F4F3
:101250008021416201207047006842690A4342616F
:1012600000207047F0B590F820500468A468012D64
:1012700005D0022D03D0416A41F4802153E014F0DF
:10128000406F01D1E5004BD5C4F30164022C03D9B2
:10129000416A41F4000146E00125A5401D608D68CA
:1012A0004FF4C0739DB1CE6835434E6845EAC6051C
:1012B000066803EB0417F5514FF4C275076805EB98
:1012C00004150E697E51097D012905D009E00E88BB
:1012D000CD6845EA4655EBE701684E5946F48076FD
:1012E0004E511179D2F805504FF4C67641EA0525E2
:1012F000016806EB04168D511178D2F801204FF4E5
:10130000C47541EA0221026805EB041551510068D9
:1013100003EB0411425842F0010242500020F0BD9C
:10132000416A41F4001141620120F0BD10B590F80E
:101330002020012A07D0022A05D0416A41F48021E9
:101340004162012010BD3B48D0F8002242F001026A
:10135000C0F80022D0F8002222F47C52C0F800220B
:10136000D0F800224B6A42EA0322C0F800220A7D2C
:1013700002F01F0301229A40D0F81C329343C0F8B8
:101380001C32CB69B3B9D0F80C329343C0F80C329D
:101390008C894B6864F31F434C6900EBC404C4F8A8
:1013A00040320C890B6864F31F434C6900EBC404A2
:1013B000C4F84432CB69012B16D1D0F80C32134358
:1013C000C0F80C320C884B6864F31F434C6900EB87
:1013D000C404C4F840320C89CB6864F31F434C69E1
:1013E00000EBC404C4F844328B69002BD0F80432FB
:1013F0000ED01343C0F804320B69002BD0F814321E
:1014000008D01343C0F81432096A012904D008E057
:101410009343EFE79343F5E7D0F81C121143C0F86C
:101420001C12D0F8001221F00101C0F800120020B7
:1014300010BD000000640040704730B590F82040B7
:10144000012C05D0022C03D0416A41F480215DE0DB
:101450000468002955D02469A40754D04FF4D874E7
:10146000056804EB01142D5915F004059560056815
:101470002D594ED0ED08556005682C5904F0020432
:10148000D4604FF4DA74056804EB01142D5905F0AB
:101490000F05156105682D59C5F307259561056888
:1014A0002C59240C54614FF4DC72046802EB0112D5
:1014B000A4581C700468A458240A5C700468A458DA
:1014C000240C9C700468A258120EDA704FF4DE727D
:1014D000046802EB0112A4581C710468A458240A81
:1014E0005C710468A458240C9C710468A258120E04
:1014F000DA71006881B1016941F0200101610020C9
:1015000030BDE468A8E7416A41F40011416201205E
:1015100030BD6D0D1560AFE7C16841F02001C160BD
:10152000EDE72DE9F05F0546006800244669D0F834
:1015300004908768D0F80CB0D0F810A0D0F81880CC
:10154000F10748D0F90714D001218160B80703D50D
:10155000284600F016FA0CE0780702D54FF4006434
:1015600007E0380702D54FF4805402E0284600F027
:1015700007FAF80516D529684FF480708860B80519
:1015800003D5284600F0FFF90CE0780502D544F4B5
:10159000005407E0380502D544F4804402E02846B0
:1015A00000F0F0F9F80316D529684FF48030886010
:1015B000B80303D5284600F0E8F90CE0780302D51B
:1015C00044F4004407E0380302D544F4803402E0D8
:1015D000284600F0D9F9300707D55FEACB6004D57B
:1015E0002968102044F40074C86070074FF00807A1
:1015F00007D55FEA0B7004D52868C760284600F05D
:1016000059F9B00706D52868C068800702D0284677
:1016100000F052F9700607D55FEACA6004D5296860
:10162000102044F480640861B00607D55FEA0A70B0
:1016300004D528680761284600F072F9F00606D53F
:1016400028680069800702D0284600F06AF9B003D4
:1016500008D55FEAC96005D529681020486028468A
:1016600000F060F9F00307D55FEA097004D5286837
:101670004760284600F08AF9300446D55FEA497091
:1016800040D5F00504D55FEAC87001D044F00104EC
:10169000B00504D55FEA887001D544F002047005F6
:1016A00004D55FEA487001D544F00404300529D51B
:1016B00018F0700F26D008F07000402815D006DC16
:1016C000102809D020280AD0302816D10AE0502846
:1016D0000ED0602811D10EE044F008040DE044F073
:1016E00010040AE044F0200407E044F0400404E061
:1016F00044F0800401E044F480742868816921F09A
:1017000070018161296804204860002C05D0686A56
:10171000204368622846FFF78FFEBDE8F09F70B552
:10172000040003D094F8200010B104E0012070BD43
:10173000204600F081F82068016841F00101016055
:1017400000F0C6FC0546052604E000F0C1FC401B85
:101750000A2811D820684068C007F6D020680168C0
:1017600021F00201016000F0B3FC05460BE000F03F
:10177000AFFC401B0A2806D9606A40F40030606262
:1017800084F82060D2E7206840688007EFD4207E8C
:101790000128206801683DD021F080010160607E51
:1017A00001282068016838D021F040010160A07E46
:1017B00001282068016833D021F020010160E07E1B
:1017C0000128206801682ED041F010010160207FBF
:1017D00001282068016829D021F008010160607F9C
:1017E00001282068016824D021F004010160D4E9B7
:1017F00002010843D4E90412114308436168491EF9
:1018000008432168C86100206062012084F820003C
:10181000002070BD41F08001C0E741F04001C5E704
:1018200041F02001CAE721F01001CFE741F00801A3
:10183000D4E741F00401D9E710B586B0044614217D
:101840006846FEF767FD18492068884229D1174885
:101850000021026842F000720260006800F000702F
:10186000059012481038026842F0010202600068D8
:1018700000F0010005904FF4C05000900220CDE927
:10188000010103200390092004906946084800F0F4
:1018900015FB00220221142000F0A6FC142000F009
:1018A00095FC06B010BD00000064004040380240C6
:1018B000000002407047000010B5154A01689142CF
:1018C0001ED1144B144A0021FFF7B7FD12480068DF
:1018D000A0F50071013905D0012903D0022901D0FA
:1018E00003290DD10B49401E0839C0B208700A49BE
:1018F00000EBC000A83901EB8000064904F070FB42
:1019000006480068416941F00201416110BD0000D4
:101910000064004014000020E408002018040020A7
:10192000704770477047000070B5044690F820007B
:10193000012804D0606A40F40020606218E00220B0
:1019400084F820002068016821F00101016000F0A6
:10195000BFFB05460EE000BF00F0BAFB401B0A28A3
:1019600008D9606A40F400306062052084F82000E5
:10197000012070BD20684068C007EDD1606270BD75
:1019800070477047704770477047704770472DE940
:10199000F0410446876D00F09BFB064694F8350045
:1019A0000025022806D08020606584F8345001208C
:1019B000BDE8F0812068016821F01601016020680F
:1019C000416921F080014161206C08B9A06C20B10F
:1019D0002068016821F0080101602068016821F099
:1019E000010101600CE000F073FB801B052807D9A2
:1019F00020206065032084F8350084F83450D7E750
:101A000020680068C007EED194F85C103F20884041
:101A1000B860012084F8350084F834500020C7E70E
:101A200090F83510022903D08021416501207047CC
:101A3000052180F835100068016821F0010101607E
:101A4000002070472DE9F84304464FF00009CDF817
:101A5000009063484FF41651A56D0068B0FBF1F794
:101A60002E6894F85C10082000FA01F131420FD082
:101A700021680A6852070BD50A6822F004020A603E
:101A800094F85C108840A860606D40F001006065CB
:101A900094F85C104FF0010808FA01F0304208D0C9
:101AA00021684969090604D5A860606D40F002000C
:101AB000606594F85C1004208840304208D02168AA
:101AC0000968890704D5A860606D40F0040060656E
:101AD00094F85C1010208840304218D021680968C2
:101AE000090714D5A86020680168490304D5006877
:101AF000000308D5A16C07E00168C90503D401689B
:101B000021F008010160216C09B12046884794F852
:101B10005C1020208840304231D021680968C90615
:101B20002DD5A86094F8350005282068016806D0F6
:101B3000490347D5006800031DD4616C1CE021F007
:101B4000160101602068416921F080014161206C2B
:101B500008B9A06C20B12068016821F0080101607B
:101B600094F85C103F208840A86084F8358084F8A1
:101B70003490216D1FE0E16B09B120468847606D0C
:101B800000282BD0606DC00714D0052084F83500E4
:101B90002068016821F0010101600098401C00905C
:101BA000B84203D820680068C007F6D184F83580B1
:101BB00084F83490E16C002910D001B02046BDE8D3
:101BC000F04308470168C905D5D4016821F0100128
:101BD000016084F8358084F83490CCE7BDE8F88360
:101BE000100100202DE9F041044600F071FA06468C
:101BF0005CB1022084F83500002584F83450206858
:101C0000016821F0010101600DE00120BDE8F081D3
:101C100000F05EFA801B052805D9202060650320AE
:101C200084F83500F2E720680068C007F0D1226828
:101C3000116820480140D4E901031843D4E9033670
:101C40003343184363691843A3691843E36918438E
:101C5000236A18430843616A042903D1D4E90B13AA
:101C600019430843106020684069666A20F0070144
:101C700030460E43012704280CD1A06A0643E06ACF
:101C800040B12046FEF7B2FF20B14020606584F8E5
:101C90003570BAE7206846612046FEF793FF94F856
:101CA0005C203F2191408160656584F8357000209B
:101CB000ACE700003F8010F02DE9F0410446866D4E
:101CC00090F83400002501280DD0012084F834005C
:101CD00094F835700020012F07D084F834000225D5
:101CE0002846BDE8F0810220FBE7022784F8357022
:101CF00060652046FEF7A4FF94F85C103F20884002
:101D0000B0602068016841F016010160206C20B1CC
:101D10002068016841F0080101602068016841F015
:101D200001010160DCE7000070B5044600F0D0F965
:101D30000546601C02D004480078044400F0C8F94D
:101D4000401BA042FAD370BD040100202DE9F047EA
:101D5000044622480F46017E01290AD0012180460F
:101D600001764CF250394846FFF768F8020003D07C
:101D70002FE00220BDE8F0874FF0FF303860206888
:101D8000174D012801D0A6681CE0207C6168FEF791
:101D9000C3FF4846FFF752F80246286820F00400C7
:101DA000286014E0217C3046FEF764FF4846FFF7C8
:101DB00045F80200286820F0FA00286001D03E6053
:101DC00005E0761CD4E902100844B042EAD8FEF7D8
:101DD00079FF002188F818101046CBE7AC110020DD
:101DE000103C02400348016841F0004101600020BE
:101DF00070470000103C02402DE9F0471B4E05469D
:101E00001446307E1F468946012808D001203076CE
:101E10004CF250384046FFF711F818B114E0022098
:101E2000BDE8F0879DB1012D16D0022D19D02246B4
:101E30003B464846FEF794FF4046FEF7FFFF0C493D
:101E40000A6822F001020A6000213176E8E7E1B277
:101E50004846FEF775FFEFE7A1B24846FEF796FF4A
:101E6000EAE721464846FEF7A3FFE5E7AC1100206C
:101E7000103C0240074900200A68002A09DA054A96
:101E8000054B0C3A1360054B13600968002900DA12
:101E900001207047103C024023016745AB89EFCD1C
:101EA00070470000044910B50A68024202D0086079
:101EB000FFF7F6FF10BD0000143C01402DE9F84F7C
:101EC000DFF8BCA10022012503264FF00F090AF11B
:101ED000040BAAF1040E00BF0B6805FA02F42340BC
:101EE000A34270D10F7907F00307012F01D0022F11
:101EF00016D187684FEA420806FA08FC27EA0C0761
:101F0000D1F80CC00CFA08FC4CEA070CC0F808C069
:101F10004768A7430C79C4F3001494403C434460E1
:101F20000C79E443A4070AD0C4684FEA420C06FACD
:101F30000CF7BC438F6807FA0CF72743C7600C798E
:101F400004F00304022C12D1D40800EB840CDCF85A
:101F500020405707FF0E09FA07F824EA0804D1F8D1
:101F6000108008FA07F848EA0408CCF820800468D2
:101F70004FEA420C06FA0CF7BC430F7907F003074F
:101F800007FA0CF7274307604C6814F4403F70D001
:101F90003C4C276847F480472760246822F00307F9
:101FA00004F480440094384C07EB040CDCF8084837
:101FB00097074FEA177809FA08F7BC43334FB8423E
:101FC00002D1002724E054E0314FB84201D101276B
:101FD0001EE0304FB84201D1022719E02E4FB8421F
:101FE00001D1032714E02D4FB84201D104270FE09F
:101FF0002B4FB84201D105270AE02A4FB84201D140
:10200000062705E0284FB84201D1072700E008273E
:1020100007FA08F72743CCF80878DAF80040574663
:10202000D1F804C09C435FEACC2C00D51C433C6033
:10203000DBF800405F46D1F804C09C435FEA8C2C7B
:1020400000D51C433C60DEF800407746D1F804C060
:102050009C435FEA8C3C00D51C433C60084F083F22
:102060003C68D1F804C09C435FEACC3C00D51C43DB
:102070003C60521C102AFFF42FAFBDE8F88F00001F
:10208000083C01404438024000300140000002405A
:102090000004024000080240000C02400010024010
:1020A0000014024000180240001C02400069084071
:1020B00000D001207047426921EA02030A4043EA46
:1020C0000241816170470AB1816170470904FBE7F1
:1020D00001488068704700000401002002488168C0
:1020E0000278114481607047040100200B4810B54C
:1020F000016841F400710160016841F48061016090
:10210000016841F480710160032000F08DF80F2018
:1021100000F006F800F03EF8002010BD003C024040
:1021200010B5014688B00022362000F05DF8362058
:1021300000F04CF813480024016841F010010160E0
:10214000006805A900F010000690684600F018F934
:1021500000F03CF90C494000B0FBF1F10C480B4A8F
:10216000491E026040F2E732C0E90324C0E90114CD
:1021700000F088FB10B1012008B010BD044800F049
:102180000FFCF9E74038024040420F0000100040C9
:10219000F40700200C4882B0016841F480410160DE
:1021A000006800F4804000900748001F016841F07B
:1021B000805101600068002200F0805000900F21E3
:1021C000901E02B000F010B844380240002809DB2D
:1021D00000F01F02012191404009800000F1E02041
:1021E000C0F8001170470000F0B40E4B1B680C469D
:1021F000C3F30223C3F10705042D00D90425191DDB
:10220000072901D2002300E0DB1E012606FA05F1B2
:10221000491E214099409E40761E16403143F0BC35
:1022200002F0BEBE0CED00E0064900F007020868AF
:102230004FF6FF03184040EA0220034A10430860AB
:10224000704700000CED00E00000FA052DE9F047B2
:102250000E46050065D0DFF81481D8F80000F7B20B
:1022600000F00700B04207D288F80070D8F80000EC
:1022700000F00700B04254D128683D4C810712D5C8
:10228000400703D5206840F4E0502060287800071C
:1022900003D5206840F4604020602068A96820F0E1
:1022A000F000084320602878C0072DD030496868C6
:1022B0000839012812D0022813D0032811D0096848
:1022C000890700292DDA216821F0030101432160EB
:1022D000FFF7FEFE814641F2883A0EE00968890365
:1022E000EFE709688901ECE7FFF7F2FEA0EB0901CF
:1022F000514502D90320BDE8F0872068696800F0E5
:102300000C00B0EB810FEFD1D8F80010404601F07F
:102310000701B14207D90770006800F00700B0421A
:1023200001D00120E7E72878400705D52068E96853
:1023300020F4E050084320602878000706D5206884
:10234000296920F4604040EAC100206000F05EF896
:102350002168084AC1F30311515CC840064908606E
:1023600006480068FFF7DCFE0020C4E7003C02409E
:1023700008380240C8BA00081001002008010020F7
:102380000F2202600C4A136803F0030343601368D2
:1023900003F0F0038360136803F4E053C360126832
:1023A0004FF4E05303EAD20202610448006800F0EF
:1023B000070008607047000008380240003C0240F7
:1023C00001480068704700001001002004480549DA
:1023D00000680968044AC1F38221515CC840704713
:1023E0001001002008380240D8BA00080448054906
:1023F00000680968044AC1F34231515CC840704723
:102400001001002008380240D8BA0008154810B55D
:10241000006810F00C02144813D04110042A0FD0A9
:10242000082A0ED10F4C241F2268236802F03F02B5
:102430005B0207D52068C0F38810A0FB010106E00D
:10244000084610BD2168C1F38811A1FB00010023DB
:10245000FDF716FF2168C1F30141491C4900B0FB9B
:10246000F1F010BD083802400024F4002DE9F84FC7
:1024700004006ED02078DFF84C93C007A9F1040562
:102480004AD009F104000168C1F38101012908D093
:102490000068C0F3810002280AD1D9F80000400288
:1024A00006D52868800337D560680028E1D033E07E
:1024B0006068B0F5803F10D0B0F5A02F286810D02C
:1024C00020F480302860286820F48020286060682C
:1024D000A8B1FFF7FDFD06460DE0286840F4803006
:1024E000F4E740F480202860F7E700BFFFF7F0FD35
:1024F000801B642873D828688003F7D50CE0FFF7A9
:10250000E7FD064605E000BFFFF7E2FD801B6428FB
:10251000F0D828688003F7D42078DFF8AC828007F1
:102520004FF0000A3ED5A748001D016811F00C0FBE
:1025300008D00068C0F3810002280BD1D9F8000050
:10254000400207D42868800716D5E068012800D12A
:1025500012E033E1E068B8B10120C8F80000FFF7ED
:10256000B7FD064605E000BFFFF7B2FD801B02285D
:10257000C0D828688007F7D52868216920F0F800BE
:1025800040EAC10028600DE0C8F800A0FFF7A0FDF8
:10259000064604E0FFF79CFD801B02281FD8286830
:1025A0008007F7D42078000722D5864F87486169D5
:1025B000703771B101210160FFF78AFD064604E022
:1025C000FFF786FD801B022809D838688007F7D5F9
:1025D0000EE0C0F800A0FFF77BFD064605E082E0B4
:1025E000FFF776FD801B02287DD838688007F7D476
:1025F0002078400768D5DFF8CCB100270BF13C0B01
:10260000DBF80000C0000BD4DBF8001041F0805173
:10261000CBF80010DBF80000012700F0805000909C
:102620006B4E3068C00510D4306840F48070306064
:10263000FFF74EFD009005E0FFF74AFD0099401AB4
:10264000022850D83068C005F6D55E4EA0686C36BA
:1026500001280FD00528306810D020F0010030602C
:10266000306820F004003060A068B8B1FFF730FD9A
:1026700000900FE0306840F00100F4E740F0040003
:102680003060F7E7FFF724FD0099411A41F28830E6
:10269000814266D830688007F4D50EE0FFF718FD58
:1026A000009007E0FFF714FD0099411A41F28830CD
:1026B000814256D830688007F4D42FB1DBF800107F
:1026C00021F08051CBF80010A069C8B33D49091D25
:1026D0000968C1F3810102294AD00228504607D077
:1026E000C8F8600000E03CE0FFF7F2FC04463BE085
:1026F0004746C8F86000FFF7EBFC064605E000BF60
:10270000FFF7E6FC801B02282BD828688001F7D44D
:10271000D4E907010843A16A2E4A490802EB0141A6
:10272000626A41EA8211084394F82C1040EA016180
:10273000C9F8001001203866FFF7CAFC044606E01D
:102740003EE000BFFFF7C4FC001B022809D8286840
:102750008001F7D534E000BFFFF7BAFC001B022868
:1027600002D90320BDE8F88F28688001F4D427E05F
:102770000128F7D0D9F80000E26900F48001914205
:102780001CD1226A00F03F01914217D147F6C07177
:10279000626A0140B1EB821F10D1A26A4FF0FF3391
:1027A00000F4403103EB5202B1EB024F06D194F832
:1027B0002C1000F07060B0EB016F01D00120D1E768
:1027C0000020CFE70438024000004742800E474215
:1027D000007000400000FFFF4FF0E021042808696E
:1027E00003D020F004000861704740F00400FAE7CD
:1027F0007047704770B590F83C20012A32D0012410
:1028000080F83C40022280F83D2003685A689D68A9
:1028100022F070060A6832435A60134B02689A42EB
:1028200014D0B2F1804F11D0104B9A420ED0104B01
:102830009A420BD00F4B9A4208D00F4B9A4205D0C8
:102840000E4B9A4202D00E4B9A4204D1496825F0B1
:1028500080031943916080F83D40002180F83C10CE
:10286000084670BD022070BD000001400004004019
:1028700000080040000C00400004014000400140FE
:102880000018004010B5040003D094F83D0010B1CA
:1028900007E0012010BD002084F83C00204600F035
:1028A0001FF8022084F83D00211D206801F000FC83
:1028B000012084F8460084F83E0084F83F0084F844
:1028C000400084F8410084F8420084F8430084F812
:1028D000440084F8450084F83D00002010BD00004D
:1028E00008B5294A01682948914207D1016841F099
:1028F00002010160006800F0020009E0244A9142F0
:1029000008D1016841F008010160006800F008008A
:10291000009008BD1F4A91420ED1016841F020018C
:1029200001600068002200F020000090052137209F
:10293000FFF75AFC372022E0174A91420ED1016876
:1029400041F0800101600068002200F080000090EA
:1029500011462C20FFF748FC2C2010E00F4A914232
:10296000D7D1016841F4807101600068002200F451
:102970008070009005212D20FFF736FC2D20BDE84A
:102980000840FFF723BC000000040040403802402C
:10299000000C004000140040001C004000200040DB
:1029A00090F83D10012901D001207047022180F8E4
:1029B0003D100168CA6842F00102CA60006811490E
:1029C000884214D0B0F1804F11D00F4988420ED008
:1029D0000E4988420BD00E49884208D00D498842E2
:1029E00005D00D49884202D00C49884204D1816843
:1029F00001F00701062903D0016841F001010160DF
:102A00000020704700000140000400400008004022
:102A1000000C00400004014000400140001800404C
:102A20000168CA6822F00102CA6001680A6A41F2BC
:102A300011131A4207D10A6A9B101A4203D10A687D
:102A400022F001020A60012180F83D100020704749
:102A500070B5044690F83C000025012817D00126E7
:102A600084F83C60022084F83D002068826822F0EF
:102A7000770222F47F4282600868502838D00DDC4B
:102A800020284FD005DC90B3102811D14AE0022055
:102A900070BD302846D040280AD13BE060282FD0B6
:102AA00070280DD0B0F5805F03D0B0F5005F12D074
:102AB000012584F83D60002084F83C00284670BD64
:102AC000CB68D1E90121206801F063FB20688168AF
:102AD00041F0770109E0CB68D1E90121206801F0DC
:102AE00058FB2068816841F480418160E1E719E08A
:102AF000CA684968206801F021FC5021206806E07E
:102B0000CA684968206801F02AFC6021206801F049
:102B10004AFBCEE7CA684968206801F00FFC4021F3
:102B20002068F4E7226801461046F0E7704770B568
:102B30000446006801694FF00005C943890715D4B0
:102B4000C168C943890711D4E91E016101202077BA
:102B5000206880698007204602D0FFF7E7FF04E085
:102B600000F0D8F8204600F06AF92577206801695E
:102B7000C943490717D4C168C943490713D46FF043
:102B800004010161022020772068806910F4407FF1
:102B9000204602D0FFF7CAFF04E000F0BBF8204651
:102BA00000F04DF9257720680169C943090716D45B
:102BB000C168C943090712D46FF0080101610420FC
:102BC00020772068C0698007204602D0FFF7AEFF5B
:102BD00004E000F09FF8204600F031F925772068E6
:102BE0000169C943C90617D4C168C943C90613D4CA
:102BF0006FF010010161082020772068C06910F48F
:102C0000407F204602D0FFF791FF04E000F082F8F9
:102C1000204600F014F9257720680169C943C907E7
:102C200008D1C168C943C90704D1891E0161204682
:102C300000F06AF920680169C943090609D4C1682E
:102C4000C943090605D46FF0800101612046FFF7F2
:102C5000CFFD20680169C943490609D4C168C94349
:102C6000490605D46FF040010161204600F072F979
:102C700020680169C94389060BD4C168C943890624
:102C800007D46FF0200101612046BDE87040FFF7D6
:102C9000B0BD70BD10B586B0044614216846FDF77E
:102CA00039FB2368164C002116480222A34210D19A
:102CB000036843F004030360006800F0040005901B
:102CC00010020090CDE90121CDE9031269460E48BA
:102CD00012E00E4CA34211D1036843F001030360DC
:102CE000006800F0010005900F200090CDE901215F
:102CF000CDE9031269460648FFF7E0F806B010BDBB
:102D0000000400403038024000080240000C00403F
:102D100000000240704770B5044690F83C00002661
:102D20000D4601280FD0012084F83C006AB1042A26
:102D30001DD0082A2FD00C2A3FD00126002084F86D
:102D40003C00304670BD022070BD206801F034FAAE
:102D50002068816941F0080181612068816921F062
:102D600004018161206881692A69114311E02068AA
:102D700001F052FA2068816941F4006181612068A4
:102D8000816921F480618161206881692A6941EA51
:102D900002218161D2E7206801F074FA2068C169DC
:102DA00041F00801C1612068C16921F00401C161DD
:102DB0002068C1692A69114311E0206801F096FA80
:102DC0002068C16941F40061C1612068C16921F4D2
:102DD0008061C1612068C1692A6941EA0221C1613B
:102DE000ACE710B5040003D094F83D0010B107E043
:102DF000012010BD002084F83C00204600F01EF8A1
:102E0000022084F83D00211D206801F051F90120C5
:102E100084F8460084F83E0084F83F0084F84000BF
:102E200084F8410084F8420084F8430084F84400A8
:102E300084F8450084F83D00002010BD70477047BD
:102E400010B50446022249B104290ED0082913D036
:102E500094F84100012816D0012010BD94F83E00DE
:102E60000128F9D184F83E200FE094F83F000128B2
:102E7000F2D184F83F2008E094F840000128EBD11B
:102E800084F8402001E084F841200122206801F00C
:102E900073F916492068164A884201D0904203D13E
:102EA000436C43F4004343642068884213D0B0F17C
:102EB000804F10D00F4988420DD00F4988420AD068
:102EC0000E49884207D0904205D00D49884202D071
:102ED0000C49884204D1816801F00701062903D01A
:102EE000016841F001010160002010BD00000140B7
:102EF000000401400004004000080040000C0040B5
:102F0000004001400018004010B5044600680E491A
:102F1000884201D1FFF7E2F80C492068884209D1C4
:102F200001F0B8FF01F0D8FF01F086FE01F0D6FFF6
:102F300001F012FF06492068884203D1BDE8104025
:102F400001F00ABB10BD000000100040001C004052
:102F5000001400407047704770470000F8B50168E2
:102F600004460868CA684B6910F00F0F4FF000055F
:102F70005AD003F0010602F49077374365D0C107B9
:102F800005D0D10503D5216C41F001012164410731
:102F900005D5D90703D0216C41F0020121648107D6
:102FA00005D5D90703D0216C41F004012164010744
:102FB00007D502F02001314303D0216C41F0080114
:102FC0002164216C00293BD0800604D5900602D5EF
:102FD000204601F0C7FB20684069216CC0F38010D7
:102FE00001F00801014320462BD001F086FB206848
:102FF0004069400621D52068143050E8001F21F0B8
:10300000400140E80012002AF5D1A06BA8B16C493C
:103010000165A06BFEF704FD002811D0A06B016DC7
:1030200001B0BDE8F040084783060ED593060CD5E5
:103030002046BDE8F84001F095BB2046FFF78CFF25
:10304000F8BDFFF789FF2564F8BD266B2023012E0C
:1030500079D1C60677D5D60675D508684868009038
:103060004869400640D5A16B086840680004000C20
:10307000EAD0A28D8242E7D9E085C869B0F5807FA9
:103080002DD020680C3050E8001F21F4807140E8FA
:103090000012002AF5D12068143050E8001F21F0FA
:1030A000010140E80012002AF5D12068143050E8F0
:1030B000001F21F0400140E80012002AF5D184F8F9
:1030C0003E30256320680C3050E8001F21F01001CD
:1030D00040E80012002AF5D1A06BFEF758FCA08D45
:1030E000E18D401A81B229E0A08DE18D401A81B2B4
:1030F000E08D0028A8D00029A6D020680C3050E828
:10310000002F22F4907240E80026002EF5D12068AE
:10311000143050E8002F22F0010240E80026002E73
:10312000F5D184F83E30256320680C3050E8002F3C
:1031300022F0100240E80023002BF5D12046FFF7D3
:103140000AFFF8BDFFE705062BD5150629D594F82B
:103150003D002128F5D1A068B0F5805F01D120693C
:10316000B0B1206A411C2162216800784860E08C7F
:10317000401E0004000CE084E3D12068C16821F007
:103180008001C1602068C16841F04001C160D8E79A
:10319000206A0088C0F308004860206A801C206212
:1031A000E5E74006CDD55006CBD5CA68204622F0CB
:1031B0004002CA6084F83D3000F000FAC1E7000028
:1031C000B945000870B5040004D094F83D0000250E
:1031D00010B106E0012070BD84F83C50204600F09C
:1031E00023F8242084F83D002068C16821F40051B0
:1031F000C160204601F016FB2068016921F490416E
:1032000001612068416921F02A0141612068C1689B
:1032100041F40051C1602564202084F83D0084F809
:103220003E00002070BD00002DE9F04786B0044646
:1032300014216846FDF76EF87148704BD4F800C051
:103240006F4E10380221032200259C4520D133689F
:1032500043F400233360336803F4002305930368C9
:1032600043F004030360006800F00400059090023E
:103270008DE823000820CDE9032069466148FEF768
:103280001DFE002203213420FEF7AEFF34205DE056
:10329000DFF8748107234FF0400A4FF000674FF4C6
:1032A0008069C44557D1564E361DD6F800C04CF043
:1032B000100CC6F800C0366806F0100605960668C1
:1032C00046F001060660006800F0010005904FF42A
:1032D000C0608DE8230069464C48CDE90323FEF722
:1032E000EDFD4C4E4A48B8463060C6E90175C6E966
:1032F000035975614FF44030B561C6E907504F4638
:1033000030467562FEF76EFC08B1FDF7B1FCA663AE
:10331000B463404E3E4860367830C6E90357756165
:10332000B56186E801054FF48030C6E907503046A4
:103330007562FEF757FC08B1FDF79AFC6663002240
:1033400003212520B463FEF74FFF2520FEF73EFF43
:1033500006B0BDE8F087DFF8C080C445F8D1D6F8E4
:1033600000C04CF4003CC6F800C0366806F40036D5
:103370000596066846F008060660006800F008003A
:10338000059060208DE8230069462448CDE9032399
:10339000FEF794FD1F4E2248C036C8463060C6E98D
:1033A0000175C6E9035980157561C6E906504FF4E9
:1033B0000039C6E908953046FEF714FC08B1FDF760
:1033C00057FCA663B463174E1548C6E903587561E8
:1033D000B561C6E907591830756286E88104304640
:1033E000FEF700FC08B1FDF743FC666300220321F1
:1033F0002620B463FEF7F8FE2620A7E7004C004025
:103400004038024000080240001001400000024025
:10341000406402407406002000440040000C02405A
:10342000886002409407002090F83E30202B0ED197
:1034300059B152B190F83C30012B08D0012380F8EB
:103440003C300023036301F073BA0120704702206F
:10345000704790F83E30202B0ED159B152B190F800
:103460003C30012B08D0012380F83C30002303635B
:1034700001F0A8BA012070470220704770B50546D8
:103480002148224C85421CD101222146FFF7E1FF51
:103490002078FDF719FB1E48DFED1E0AB0F9040085
:1034A00000EE100AB8EEC00A20EE200ADFED1A0A7C
:1034B00020EE200A10EE100AFDF715F9174AC2E9AE
:1034C0000001174885421DD1164841786180618806
:1034D0004FF6FF7202EA012161800078618808439B
:1034E000608011490020628802F0010221F810205A
:1034F000628852086280401C1028F4DBBDE87040EE
:1035000001F02AB870BD0000A8050020E8000020E6
:10351000AE00002000000038000034437800002096
:1035200030060020EC0000202E0D00207047000027
:1035300070B5044690F83D00202836D191B38AB387
:1035400094F83C00012830D0012084F83C0021622E
:10355000A284E28400252564212084F83D00636B69
:103560001348D863636B13481864636B1248D864BC
:10357000606B134605652668606B321DFEF79CFB89
:1035800021686FF04000086084F83C5020681430D7
:1035900050E8001F41F0800140E80012002AF5D1F8
:1035A000002070BDFFE70120FBE70220F9E70000E3
:1035B000AF460008F1460008C9450008704770474B
:1035C000FEE7000070B538B11F4C012813D0022867
:1035D0001DD0032827D02CE01C4C4FF40045294671
:1035E0002046FEF763FD20BB29462046FEF75EFD20
:1035F0000028F9D025E001212046FEF757FDC0B98B
:1036000001212046FEF752FD0028F9D019E00221E1
:103610002046FEF74BFD60B902212046FEF746FD2D
:103620000028F9D00DE004212046FEF73FFD0128D7
:1036300001D0002070BD04212046FEF737FD01288F
:10364000F9D0012070BD00000008024000000240D7
:103650007FB5002415480094019402941249039404
:1036600001604FF48031C0E901140461047680F8F0
:1036700020400F49C0E90A140125C561C46080F8E3
:1036800030404561FDF7ADFC08B1FDF7F1FA0720C8
:10369000CDE90005694602940448FDF7F7FB0028D0
:1036A00001D0FDF7E5FA7FBD00200140D0030020E6
:1036B0000100000F0F4810B50D490160062141605F
:1036C00000214FF480228160C0E90312416101763C
:1036D000012242768176C17601774177FEF71FF8A5
:1036E000002803D0BDE81040FDF7C2BA10BD0000AD
:1036F0000064004018040020194808B5016841F42E
:1037000080010160016801F480010091016841F4C9
:10371000001101600068002200F4001000900521F3
:103720001020FEF761FD1020FEF750FD002205215C
:103730001120FEF759FD1120FEF748FD002205215A
:103740003A20FEF751FD3A20FEF740FD0022052108
:103750004620FEF749FDBDE808404620FEF736BD8D
:103760003038024010B58EB01C220B496846FCF779
:10377000B8FD0021684602F031FF084C06491C22C2
:1037800020601C3107A8FCF7ACFD002107A802F05F
:1037900025FF60600EB010BDBC960008040000203C
:1037A0002DE9F04786B014216846FCF7B3FD59486F
:1037B0000024016841F010010160016801F010016E
:1037C0000591016841F004010160016801F0040104
:1037D0000591016841F080010160016801F08001FC
:1037E0000591016841F001010160016801F00101EA
:1037F0000591016841F002010160016801F00201D8
:103800000591016841F0080101600068424E00F036
:1038100008004FF400550590002229463046FEF777
:1038200052FC0122DFF8F480170239464046FEF7C9
:103830004AFCDFF8EC90012203214846FEF743FCE6
:10384000DFF8E0A00022C0215046FEF73CFC40F625
:103850007F60CDE90004694640460294FEF72EFBE6
:1038600000950125CDE90154694630460394FEF7E1
:1038700025FB40F26710CDE900046946304602940A
:10388000FEF71CFB4FF48810CDE900500226694674
:1038900002965046FEF712FB4DF20E00CDE90004F1
:1038A000694650460294FEF709FB0097CDE90154A2
:1038B000694640460394FEF701FB4FF47060CDE982
:1038C0000004694648460294FEF7F8FAE8038DE8DA
:1038D000310069461448FEF7F1FA0320CDE90005EE
:1038E000CDE9025669464846FEF7E8FAC020009046
:1038F000CDE90154694650460394FEF7DFFA0022F1
:1039000003210620FEF770FC0620FEF75FFC06B0E0
:10391000BDE8F08730380240000802400010024045
:10392000000C024000040240000002400B4810B5A9
:103930000949016053214160002140F69F72C0E9AE
:10394000021201618161FEF79DFF002803D0BDE8EE
:103950001040FDF78DB910BD001C00401805002077
:103960000C4810B50A49016042F2CF0141600021C4
:1039700042F20F72C0E9021201618161FEF782FF1B
:10398000002803D0BDE81040FDF772B910BD00005B
:10399000002000406005002010B58EB00024079480
:1039A000089409940A940B941C2168460C94FCF723
:1039B000B1FC1E481C49016042F2CF01C0E901146C
:1039C000C721C0E903148461FEF75CFF08B1FDF76D
:1039D0004FF94FF48050079007A91448FFF738F8C3
:1039E00008B1FDF745F91148FFF7FBF908B1FDF7FC
:1039F0003FF90B940BA90D480C94FEF7FBFE08B1A0
:103A0000FDF736F96020CDE9000402940C226946E6
:103A100006480494FFF77FF908B1FDF729F9034838
:103A2000FFF738F90EB010BD00040040400400203C
:103A300010B58EB000240794089409940A940B944E
:103A40001C2168460C94FCF765FC2A482849016053
:103A500042F2CF01C0E90114C721C0E90314846117
:103A6000FEF710FF08B1FDF703F94FF480500790FF
:103A700007A92048FEF7ECFF08B1FDF7F9F81D484B
:103A8000FFF7AFF908B1FDF7F3F80B940BA919484C
:103A90000C94FEF7AFFE08B1FDF7EAF86020CDE91F
:103AA000000402940022694612480494FFF733F997
:103AB00008B1FDF7DDF8042269460E48FFF72BF93F
:103AC00008B1FDF7D5F8082269460A48FFF723F93F
:103AD00008B1FDF7CDF80C2269460648FFF71BF93F
:103AE00008B1FDF7C5F80348FFF7D4F80EB010BDD4
:103AF000000C0040880400201CB500240F480094EE
:103B00000D490194016040F24731C0E9011440F2CF
:103B1000F3118461C160FEF7B5FE08B1FDF7A8F8A6
:103B20000094694605480194FEF764FE002801D020
:103B3000FDF79EF81CBD000000140040D0040020DA
:103B40000C4810B50A4901604FF4E1314160002191
:103B500081600C22C160C0E904128161C161FFF77C
:103B600031FB002803D0BDE81040FDF781B810BD3F
:103B7000004C0040A80500200C4810B50A4901601F
:103B80000B494160002181600C22C160C0E9041230
:103B90008161C161FFF716FB002803D0BDE810402A
:103BA000FDF766B810BD000000100140EC050020D4
:103BB000A08601000C4810B50A4901604FF4165167
:103BC0004160002181600C22C160C0E90412816162
:103BD000C161FFF7F7FA002803D0BDE81040FDF7F8
:103BE00047B810BD0044004030060020FEE7704793
:103BF000A0B1D0ED101AC0ED111A90ED0F1A80EDA2
:103C0000101AC0ED060A80ED070A30EEC00A80EDFA
:103C10000F0A017829B101293BD078E09FED3D0AD8
:103C20007047D0ED010A60EE801AC0ED091AD0EDA0
:103C30000A0A90ED022A42EE000A30EE410AC0ED77
:103C40000A0A90ED0D2A80ED0E2A90ED0C2A80EDE7
:103C50000D2A80ED0C0A90ED031A21EE001A80ED7A
:103C60000B1A90ED050AF4EEC00AF1EE10FA09DC29
:103C7000B1EE400AF4EEC00AF1EE10FA02D390ED74
:103C80000A0A01E080ED0A0A31EE800A30EE010AEC
:103C90002BE070EE410A90ED012A20EE822A80EDA1
:103CA000092AD0ED020A60EE800AC0ED0A0AD0EDC2
:103CB0000D2A72EE200AC0ED0E2AD0ED0C2AC0EDBE
:103CC0000D2AF0EE002A01EE620A30EE210A80EDA4
:103CD0000C0A90ED031A21EE000A80ED0B0A30EE7B
:103CE000800AD0ED080A30EE200A80ED080AD0EDF7
:103CF000040AB4EEE00AF1EE10FA06DCF1EE600A16
:103D0000B4EEE00AF1EE10FA01D2C0ED080A90ED2F
:103D1000080A704700000000002819D09FED0D0A26
:103D200080ED110A80ED100A80ED0F0A80ED0E0A79
:103D300080ED0D0A80ED0C0A80ED0B0A80ED0A0A79
:103D400080ED090A80ED080A80ED060A80ED070A79
:103D50007047000000000000002828D0002A26D06C
:103D6000017092ED001A80ED011A92ED011A80EDBA
:103D7000021A92ED021A80ED031A80ED040A9FEDFB
:103D80000C0AC0ED050A80ED0E0A80ED0D0A80EDEB
:103D90000C0A80ED080A80ED0B0A80ED0A0A80ED1E
:103DA000090A80ED110A80ED100A80ED0F0A7047B4
:103DB00000000000002802D0001D80EC030A7047BC
:103DC00030B5144B1C68656945F0400565611B689A
:103DD000DC6844F01004DC600F4B1C68256825F09B
:103DE000010525601C682568ED07F7D11D680B4C9F
:103DF000AC601C68E060186801611868426018686F
:103E0000016841F4802101601868016841F00101F6
:103E1000016030BDEC050020740600200410014054
:103E20002DE9F0410646881B144690FBF4F70D4639
:103E30000123DFF8208007E007FB03610120C8F8B9
:103E4000181001F031FC5B1CA342F5DBC8F81850D8
:103E5000BDE8F0813800002070B51D4D14462D29B5
:103E60001FD006DC292918D02A290DD02B2904D1EE
:103E700008E04C2918D04D291FD0012180F82710C7
:103E8000012070BD00BFFBE700204FF4A07100BF10
:103E9000401C80B28842FAD3F2E70120FDF744FFCC
:103EA000EEE7052001F0F2FB012C04D0002CE7D155
:103EB0000022402106E00122FBE7012C06D0002A67
:103EC000DED180212846FEF7FEF8D9E70122F8E787
:103ED0000004024030B4134B134C991509281ED22C
:103EE000DFE800F01D05080C0F0A121619004FF448
:103EF000006101E04FF4806118460DE04FF400715D
:103F0000FAE74FF4004101E04FF48051204603E00E
:103F10004FF48041FAE7054830BCFEF7C7B830BC23
:103F200070470000000C02400004024000100240F4
:103F300040B1012809D002280AD105215FF0000014
:103F400003F018BE05212820FAE705215520F7E7E0
:103F5000704700002DE9F0410F4C88461646E17885
:103F60001D4607460122A06900F050FA2A4639464C
:103F7000A069FFF755FF684206EB400001F094FB93
:103F80002A4641463846FFF74BFFE178012240467A
:103F9000BDE8F04100F03ABA3800002004480021A2
:103FA000417081700170C17181718161C16270471E
:103FB0003800002010B5502080F31188BFF34F8FD8
:103FC000BFF36F8F05F0F8F918B104494FF0805036
:103FD0000860002080F3118810BD000004ED00E0AF
:103FE00030B593B030216846FCF794F914210CA841
:103FF000FCF790F919480025016841F080510160F3
:10400000006800F0805011901548016841F480412B
:1040100001600068022400F48040119001200090AB
:10402000000401908001CDE9064008AA0420A821DF
:1040300082E813000B906846FEF718FA0CA90F20CF
:1040400081E831004FF4A0500F90E002109005215C
:104050000CA8FEF7FBF813B030BD0000403802405A
:10406000007000400548016841F470010160034997
:104070004FF00060803908607047000088ED00E074
:104080000148FEF754BD0000F40700200148FEF788
:104090004EBD0000D00400200148FEF748BD0000DE
:1040A000600500200148FEF742BD00001805002011
:1040B000F0B50268254C264D264E274F274B4FF072
:1040C000804CA04209D0604507D0A84205D0B0423C
:1040D00003D0B84201D0984204D122F0700E4A6851
:1040E00042EA0E02A0421BD0604519D0A84217D068
:1040F000B04215D0B84213D0984211D0184DA84202
:104100000ED0184DA8420BD0174DA84208D0174D1D
:10411000A84205D0164DA84202D0164DA84203D1A0
:1041200022F44075CA682A434D6922F080022A436E
:1041300002608A68C2620A688262A04201D0984224
:1041400001D10969016301214161F0BD0000014015
:104150000004004000080040000C00400004014042
:104160000040014000440140004801400018004068
:10417000001C00400020004010B501F01F03012189
:10418000046A99408C430462016A9A4011430162B7
:1041900010BD10B5846842EA032224F47F440A4328
:1041A0002243826010BD826822F070020A4342F00E
:1041B0000701816070470000F0B5026A22F0010239
:1041C0000262036A42688469124E24F073050C6827
:1041D0002C4323F002058B682B430D4DA84201D0E0
:1041E000B04205D123F00807CB683B4323F004031A
:1041F000A84201D0B04205D14D6922F44072154366
:104200008A692A4342608461496841630362F0BD60
:104210000000014000040140F0B5026A22F01002E3
:104220000262026A436884690D6824F4E64444EA41
:1042300005248D6822F0200242EA05120F4D104E2F
:10424000A84201D0B04206D1CF6822F0800242EAF3
:10425000071222F04002A84201D0B04207D14D69B6
:1042600023F4406343EA85038D6943EA8503436091
:104270008461496881630262F0BD00000000014072
:1042800000040140F0B5026A22F480720262026A00
:104290004368C46922F4007224F073050C68124E5E
:1042A0002C438D6842EA05220E4DA84201D0B0424F
:1042B00006D1CF6822F4006242EA072222F480622B
:1042C000A84201D0B04207D14D6923F4405343EADC
:1042D00005138D6943EA05134360C4614968C163EE
:1042E0000262F0BD000001400004014030B5026AE6
:1042F00022F480520262046A4268C3690D6823F4A2
:10430000E64343EA05238D6824F4005444EA053467
:10431000084DA84202D0084DA84204D14D6922F4AC
:10432000804242EA85124260C361496801640462C6
:1043300030BD0000000001400004014010B5036AD8
:10434000046A24F001040462846924F0F00444EA5D
:10435000021423F00A020A438461026210BD10B500
:10436000036A23F0100303628369046A23F4704331
:1043700043EA023224F0A00343EA011182610162A0
:1043800010BD000070B505461B482DED028B856100
:104390000220FFF79FFD194C012804D10320FFF7ED
:1043A00099FD012820D00220FFF794FD18B90320C1
:1043B000FFF790FDC0B10220FFF78CFD9FED108B41
:1043C000B8B10320FFF786FD00280AD14FEA0500A7
:1043D000FCF733F953EC182BFCF74EF8FCF7C6F951
:1043E0002062BDEC028B70BD9FED070A84ED080AC8
:1043F000F7E76842ECE7000038000020EC0A0020F4
:10440000000000000000E03F0000000010B5044B79
:1044100000241C70DC719C71D9705A70986110BDB9
:104420003800002010B53E4C2DED068BA1619FEDAC
:104430003D8B9FED3E9B9FED3FAB404920B1012856
:104440003AD0022849D056E05FF0070031F810203A
:10445000012A04D101EB40025288012A50D0C0F158
:104460000F0231F81220012A05D1C0F10E0231F8F5
:104470001220012A05D00F281BD0401C0F28E5DD93
:1044800039E0FCF7DAF853EC182BFBF74EFF53EC4E
:10449000192BFBF7EBFF9FED2A1B41EC100B53ECA4
:1044A000112B00BF51EC100BFBF7E6FFFCF7E3F814
:1044B00000E0606920611EE05FF0000031F810202C
:1044C000012A04D101EB40025288012A18D00F289A
:1044D000EFD0401C0F28F1DD0DE00F2031F8102047
:1044E000012A04D101EB40025288012A08D0002899
:1044F000DFD0401EF2D520696061BDEC068B10BD97
:10450000FCF79BF853EC182BFBF70FFF53EC192B20
:10451000FBF7ACFF41EC100B53EC1A2BC2E7000089
:1045200038000020000000000000E03F0000000014
:1045300000001E4000000000000024C02E0D0020DE
:1045400000000000000024400248007A012800D04A
:10455000002070473800002008B557208DF8000073
:10456000012269460148FEF7E3FF08BD300600203E
:1045700010B52DED028BB0EE408AFFF70FFD094C10
:104580004FF47A60E062C82002F01CF89FED060A42
:104590000020E06238EE000ABDEC028BBDE810405E
:1045A00001F0BEB838000020000034430148FEF797
:1045B000D5BC0000A805002010B5806B0021C18586
:1045C000C184FEF7C9FC10BD70B5846B20684069DA
:1045D00094F83D10C0F3C0100025212904D118B172
:1045E000E584204600F0B0F82068406994F83E1059
:1045F000C0F38010222904D118B1E585204600F0CF
:104600007CF8206C40F0100020642046FEF7A4FCEB
:1046100070BD10B50146806B09680968C9052FD4C3
:104620000021C18501680C3151E8002F22F480720D
:1046300041E80023002BF5D10168143151E8002F27
:1046400022F0010241E80023002BF5D1016814316A
:1046500051E8002F22F0400241E80023002BF5D161
:10466000202180F83E10016B012909D101680C312D
:1046700051E8002F22F0100241E80023002BF5D171
:10468000016B012902D0FEF7F9FE10BD818DFEF706
:1046900062FC10BD10B5806B016B012902D0FEF7E2
:1046A00045FF10BD818D4908FEF755FC10BD10B5C2
:1046B0000146806B09680968C90516D40021C184C8
:1046C0000168143151E8002F22F0800241E80023F4
:1046D000002BF5D101680C3151E8002F42F0400267
:1046E00041E80023002BF5D110BDFEF767FF10BD98
:1046F00010B5806BFEF763FF10BD01680C3151E807
:10470000002F22F4907241E80023002BF5D10168BC
:10471000143151E8002F22F0010241E80023002B60
:10472000F5D1016B012909D101680C3151E8002F45
:1047300022F0100241E80023002BF5D1202180F85F
:104740003E1000210163704701680C3151E8002FD1
:1047500022F0C00241E80023002BF5D1202180F88F
:104760003D10704708B590F83E10222901D0022074
:1047700008BD82684FF480539A4201D1016921B18A
:10478000816A9A421BD04AB10AE00268816A526883
:10479000C2F308020A80816A891C08E0026972B1CA
:1047A0000268526802F07F020A70816A491C8162C5
:1047B000C18D491E0904090CC18503D019E00268A6
:1047C0005268F1E70168CA6822F02002CA600168F5
:1047D000CA6822F48072CA6001684A6922F0010244
:1047E0004A61202180F83E10016B012903D0FEF7B9
:1047F00045FE002008BD0021016301680C3151E82D
:10480000002F22F0100241E80023002BF5D10168AF
:104810000A68D20602D50A6849680091818DFEF7C0
:104820009AFBE6E770B5044600680169E26821F486
:104830004051114301612169A068E269084361693F
:10484000114308432168CA6849F20C639A43024342
:10485000CA6020684169A26921F440711143416135
:1048600031492068884202D03049884202D1FDF7A0
:10487000BDFD01E0FDF7AAFDE269002319216425D1
:104880003226B2F5004F626828D0A0FB0101930FD9
:104890009200FBF7F5FC0146B0FBF5F06FF0180253
:1048A000504301EB800006EB0010B0FBF5F000F088
:1048B000F002B1FBF5F002EB0012B1FBF5F06FF086
:1048C0001803584301EB800006EB0010B0FBF5F035
:1048D00000F00F0021681044886070BDA0FB01014A
:1048E00092185B41FBF7CCFC0146B0FBF5F00201EE
:1048F000B1FBF5F06FF01803584301EB800006EBB5
:10490000C000B0FBF5F000F0F80002EB4002B1FB94
:10491000F5F0584301EB800006EBC000B0FBF5F06A
:1049200000F00700D6E7000000100140001401402D
:1049300038B581628285002513460446056422202D
:1049400084F83E00A26B1C48D063A26B1B48106425
:10495000A26B1B48D064A06B0A4605652168A06B5A
:10496000091DFDF7A9F9206801684068009084F8E6
:104970003C50206948B120680C3050E8001F41F4D9
:10498000807140E80012002AF5D12068143050E808
:10499000001F41F0010140E80012002AF5D1206813
:1049A000143050E8001F41F0400140E80012002A96
:1049B000F5D1002038BD00001346000895460008D8
:1049C000C945000881628285C285002101642222D6
:1049D00080F83E2080F83C10016921B10168CA6866
:1049E00042F48072CA6001684A6942F001024A6179
:1049F0000068C16841F02001C160002070470000DC
:104A000010B500F007F8BDE810400148FEF7A6BA5F
:104A1000EC050020264818B400680168890604D512
:104A200001684068009018BC704722490968C906AF
:104A3000F9D501684068204A0090106801684FF07D
:104A400024030C031D49046824F00104046016D4F7
:104A500010684468C4F12404A4B24C804360106818
:104A6000016841F4002101601068016841F0010112
:104A70000160122CD7D1124901F1160015E014681B
:104A80006068C0F1240080B2488063600D490B6803
:104A900023F400230B6011680A6842F001020A60E7
:104AA0001228C0D1064901F13A0018BC03F008B839
:104AB000EC0500200010014074060020FA000020E0
:104AC0004E0D0020406402400148FEF747BA000046
:104AD00030060020FEE7000010B501220D490E4807
:104AE000FEF7B7FC0D48DFED0E0AB0F9040000EE4A
:104AF000100AB8EEC00A20EE200ADFED0A0A20EE06
:104B0000200A10EE100AFBF7EEFD024A521FC2E91E
:104B10000E0110BD3D000020A8050020AE000020C1
:104B20000000003800003443074A03205FF0000112
:104B300032F81030012B00D1491C401C0C28F7DD45
:104B40000429F2DD704700002E0D00204FF496700E
:104B500001F038FD3248FDF723FF3248FDF720FF12
:104B600002F09AFE02F0AEFE01212F4800222F4EE5
:104B7000017041708270C1702D4D01710C4600BFF3
:104B800001F056FD01F07FFD01F0BAFD00F0D0FE0E
:104B90003078012801D003280ED1287810B100F018
:104BA000FEFB03E000F0E8FB01F0DCFD01F032FF6A
:104BB00001F054FE00F0A6FB307804280ED12878CE
:104BC00010B100F0CDFC03E000F086FC01F0CAFD5E
:104BD00001F020FF01F0B4FE00F04AFC307802281A
:104BE0000ED1287810B100F0DAFB03E000F0C4FB2E
:104BF00001F0B8FD01F00EFF01F0A2FE00F038FC5C
:104C000000F00EFB641C022CBADD0A4D4FF4005478
:104C100021462846FDF74FFA642001F0D3FCF7E760
:104C2000D004002018050020F400002041000020DE
:104C3000910000200008024070B52F482DED048B34
:104C400002782F492D489FED2F9B91ED000BDAB391
:104C500090ED001B51EC100B53EC112BFBF706FCF5
:104C60009FED2A0B41EC180B53EC102BFBF766FD64
:104C700007D253EC192B51EC180BFBF7F7FB41EC67
:104C8000180B9FED240B51EC180B53EC102BFBF77A
:104C90003DFD07D253EC192B51EC180BFBF745FBEC
:104CA00041EC180B51EC180BFBF760FD054600EECC
:104CB000105A01F067FC10EE101A1848814202DC0D
:104CC00017490120087000E013E0174CDFED150ACA
:104CD00000EE105AC4ED060A2046FEF789FF94ED57
:104CE000080A1248BDEEC00A80ED000ABDEC048B34
:104CF00070BD80ED000BF9E73F0000208000002030
:104D000078000020000000000080764000000000D5
:104D10000080664000000000008066C00000404047
:104D20003E00002000000000A40A002064000020D3
:104D30004FF4C87001F046FC064C206804F076F988
:104D400001F08CF8206804F071F9012001F03AFCC0
:104D5000F6E7000008000020F8B53F4800783F4C17
:104D6000012803D03E480078012808D13D4890ED45
:104D7000080AB1EE400ABDEEC00A84ED000A012027
:104D8000FFF7A8F810B938480078E8B33748226828
:104D90000168084604F0D8FB354CA16B60690844F3
:104DA000E16D401AD4F88010401AFBF746FC9FEDE5
:104DB000311B53EC112BFBF75FFB9FED301B53ECCA
:104DC000112BFBF7CBFBFBF756FC2E4908602E4D51
:104DD000002600BF06EBC60105EBC10034F9211027
:104DE000D0ED060A00EE101AB8EEC00AFEF700FF7A
:104DF000761C042EEEDB2548007870B100200346B7
:104E000002460146009000E003E0214802F034FF32
:104E1000F8BD002211461046BCE795ED3E0ABDEEF6
:104E2000C00A10EE100A00B2009095ED2C0ABDEEFB
:104E3000C00A10EE100A95ED1A0A03B2BDEEC00AC0
:104E400010EE100A95ED080A02B2BDEEC00A10EE8F
:104E5000100A01B2D7E700003900002064000020EA
:104E60003A000020EC0A002034000020500000200E
:104E70003C080020333333333373404000000000DC
:104E80000000624054000020840900203C00002003
:104E90001804002010B50420FFF71CF80A4C2070FD
:104EA0000520FFF717F8607000F018FC074908703C
:104EB0000748B0F90610074811F5167F01DA0121FD
:104EC00000E00021017010BD4200002040000020E1
:104ED0004E0D00203C00002002F062BD70B5254858
:104EE0000078254D01283AD12448B0F90010B0F9D6
:104EF00024201144B0F94820B0F96C00891A081A2E
:104F0000FBF79BFB9FED1E1B53EC112BFBF7B4FA39
:104F1000FBF72CFC00EE100A9FED1B1A1B4C1C48E3
:104F2000C1EE000AB3EE020A20EE800AF5EE000A96
:104F300084ED010A20EE200A84ED030A0078296836
:104F4000FFF770FADFED130A1348C4ED060A006894
:104F500000EE100A2046B8EEC00AFEF749FE0F48E0
:104F60000078012804D12868BDE87040FFF70ABA2C
:104F700070BD000039000020500000203C080020D7
:104F8000000000000000D03F00803B46EC0A0020FB
:104F90003B00002000000000480000203A000020F4
:104FA0000907090E002804DB00F1E02080F8001456
:104FB000704700F00F0000F1E02080F8141D7047EA
:104FC00002E008C8121F08C1002AFAD170477047D2
:104FD000002001E001C1121F002AFBD17047000030
:104FE00070B50220FEF776FF0028FAD00320FEF706
:104FF00071FF0028F5D00220FEF76CFF0028FAD0E0
:105000000320FEF767FF0028F5D0002000F0F4F839
:105010002B4C012626702C489FED2A0A324680ED43
:10502000000A002141F28830FFF7F0F9142000F067
:105030003BFB0120FEF77CFF0220FEF74BFF01281F
:10504000FAD00320FEF746FF0128F5D000221146D2
:105050001046FFF7DBF91D4D95ED000B51EC100BE1
:10506000FBF784FBFBF73FFB41EC100B01214FF4F6
:105070007A6000F0B5FB282000F016FB0020FEF758
:1050800057FF2670012140F6B83095ED000B00F077
:10509000A7FB0A2000F008FBFEF780FF00F0DEFE11
:1050A00095ED000B51EC100BFBF760FB00EE100AC6
:1050B000FFF75EFA00202070BDE87040FEF76EBF7B
:1050C000340000200AD7233C58000020780000203C
:1050D00010B500242DED048B9FED1F8A1F48FCF7AF
:1050E00031F864211D48FBF7D7FF1C48FBF774FF1C
:1050F000800519D51948FBF771FFFBF7AFFA9FED53
:10510000181B53EC112BFBF7B7F941EC190B18EEF8
:10511000100AFBF7E8FA53EC192BFBF706F9FBF73B
:1051200025FB08EE100A641C642CD7DBDFED0E0AA9
:1051300088EE200A10EE100AFBF7D5FA9FED0B1B44
:1051400053EC112BFBF798F9FBF710FB09490863A7
:10515000BDEC048B10BD000000000000D003002057
:1051600000000000000021400000C842F54A5986B6
:1051700038D6E93F380000202DE9F0414FF4FA75A8
:10518000174C184E10E000BF02F09AFD2846FCF7BD
:10519000CBFD15A1154803F027F82846FCF7C4FD00
:1051A0000020FEF70FFA10B9206BB042ECDB104E76
:1051B000104F206B3044B84210D202F081FD2846D7
:1051C000FCF7B2FD08A1094803F00EF82846FCF7E9
:1051D000ABFD0020FEF7F6F90028EAD0BDE8F0812B
:1051E0003800002000E02B464C4F570000090020FB
:1051F000FF3FA5B9FFAF520010B550B101280ED145
:1052000004210F2002F0B6FCBDE81040002002F09F
:1052100011BB0421BDE81040572002F0ABBC10BD0B
:105220002DE9F05F364E41F2707443F2C8283078B1
:105230004FF47A654FF4FA5941F6583A6FF02C0B57
:1052400041F28837012801D0022827D128236E2275
:1052500021464046FEF77EFE052300222D212046F2
:1052600002F050FD14232D2229464846FEF772FE17
:10527000284601F00BF81423282229465046FEF751
:1052800069FE082300225946384602F03BFD012200
:1052900000213846FFF7BAF8FFF7A2FE307803285E
:1052A00001D004282AD128236E2221464046FEF749
:1052B00051FE052300226FF08301204602F022FDFB
:1052C00014232D2229464846FEF744FE284600F0C6
:1052D000DDFF1423282229465046FEF73BFE082313
:1052E00000225946384602F00DFD012200213846C1
:1052F000FFF78CF8BDE8F05FFFF772BEBDE8F09FE6
:10530000410000202DE9F0411A4C41F2883543F26A
:10531000C826207841F2707701280FD1142002F0BE
:10532000E7FC2823C82229463046FEF713FE002357
:105330001A466FF05901384602F0E4FC2078032841
:1053400016D100231A466FF03101384602F0DAFC1C
:1053500028234FF4AF722C4629463046FEF7FAFD5B
:105360002046BDE8F04100231A46872102F0CABC5E
:10537000BDE8F0814100002010B541F6583401220B
:1053800000212046FFF742F832237822214643F2DB
:10539000C820FEF7DFFDBDE8104001F025BC70B568
:1053A00041F65834012200212046FFF72FF843F23E
:1053B000C8252823FA2221462846FEF7CBFD41F2D4
:1053C0007076012200213046FFF720F800231A46AC
:1053D0005A21304602F096FC012200212046FFF7B8
:1053E00015F82823FA2221462846FEF7B3FD6FF070
:1053F000040300225A21204602F084FC28235F2265
:1054000021462846FEF7A6FD00231A465A212046CB
:1054100002F078FC2823822221462846FEF79AFDD6
:10542000002301226FF07701204602F06BFC282355
:10543000AA2221462846FEF78DFD062300226FF0A2
:105440009501204602F05EFC012211462046FEF73F
:10545000DDFF142000F028F9012200214FF4FA505A
:10546000FEF7D4FFBDE87040002001F047BD00000A
:1054700070B5184D4FF4FA5443F2C8262878042822
:105480000ED1142002F034FC2823D22221463046CB
:10549000FEF760FD072300225A21204602F032FC6D
:1054A0002878022815D1072300223221204602F055
:1054B00029FC28234FF4AF7221463046FEF74AFDFF
:1054C0002046BDE8704000231A466FF08B0102F0C1
:1054D00019BC70BD4100002070B5204C41F27075C0
:1054E0002078022806D1052300226FF08B01284680
:1054F00002F008FC2078042806D1052300226FF072
:105500005901284602F0FEFB012211462846FEF70B
:105510007DFF0F2000F0C8F8012200212846FEF789
:1055200075FF41F288341D233C2221466000FEF7BE
:1055300011FD4FF47A65284600F0C7FE3223A02201
:10554000214643F2C820FEF705FD01F04DFB284639
:10555000BDE8704001220021FEF758BF4100002045
:105560002DE9F041484C41F270752078022806D1AF
:10557000052300226FF08B01284602F0C3FB207840
:10558000042806D1052300226FF05901284602F0B5
:10559000B9FB012211462846FEF738FF0F2000F024
:1055A00083F8012200212846FEF730FF41F28834BB
:1055B0004FF4FA561823322221463046FEF7CAFC31
:1055C000701000F082FE43F2C82732234FF4A0721D
:1055D00021463846FEF7BEFC012200212846FEF790
:1055E00015FF00231A465A21284602F08BFB41F68C
:1055F0005834012200212046FEF708FF2823FA2212
:1056000021463846FEF7A6FC6FF0040300225A211B
:10561000204602F077FB28235F2221463846FEF71A
:1056200099FC00231A465A21204602F06BFB2823DE
:10563000822221463846FEF78DFC002301226FF0BE
:105640007701204602F05EFB2823AA222146384635
:10565000FEF780FC062300226FF09501204602F041
:1056600051FB012211462046FEF7D0FE142000F027
:105670001BF8012200213046FEF7C8FEBDE8F041CC
:10568000002001F03BBC00004100002010B50446A2
:10569000FCF796FE0349B0FBF1F16143491EFDD2D0
:1056A00010BD000000093D000649CA6900281044E9
:1056B00003DBCA699042FCDC7047CA699042FCDB9C
:1056C000704700003800002010B504460420FDF7A4
:1056D00083F80148046010BD000000200F480178E5
:1056E00009B9417811B1017811B104E00020704787
:1056F0004178012903D00178012902D003E001207B
:105700007047417839B101780129F9D140780128F1
:10571000F6D10320704702207047000042000020AD
:1057200070B5284C00252DED028B0646B0EE408A60
:1057300025702548FEF7F0FAFEF730FC322000F025
:1057400041FF0120E071A57118EE100AFAF7CBFFB6
:10575000C4E91201002E32D1A0790028FCD01B48E8
:10576000B0F90010B0F924201144B0F94820B0F984
:105770006C0010440844FAF760FF9FED151B53ECD2
:10578000112BFAF779FEFAF776FF00EE100AB8EE61
:10579000C00A00F0F7FE10EE100AFAF7A4FF9FED22
:1057A0000E1B53EC112BFAF767FEFAF783FF00F09C
:1057B00009FFBDEC028BBDE87040FEF7EFBBBDEC0E
:1057C000028B70BD38000020A40A00203C08002095
:1057D000000000000000D03F7B14AE47E17AB43FE8
:1057E0002DE9F04106462DED048B0F46B0EE408AC0
:1057F000F0EE608A3348FEF78FFA334C9FED339B0F
:105800000025EFB36570A570E56284ED128B94ED11
:10581000100B53EC182B51EC100BFAF727FE9FEDF1
:105820002D0B41EC180B53EC102BFAF787FF07D226
:1058300053EC192B51EC180BFAF718FE41EC180B2E
:105840009FED260B51EC180B53EC102BFAF75EFF73
:1058500007D253EC192B51EC180BFAF766FD41EC0B
:10586000180B51EC180BFAF781FF00EE100A00F04C
:1058700089FEDFED1C0A30EE601A81EE200A00E09E
:105880001BE010EE100AFAF72EFF9FED171B53ECEA
:10589000112BFAF7F1FD9FED161B53EC112BFAF7C4
:1058A00044FDFAF763FF07498860A5710120A661EE
:1058B000E071BDEC048BBDE8F081E571A661E562A5
:1058C000F7E70000A40A00203800002000000000D4
:1058D000008076400000000000806640000000006C
:1058E000008066C00000B442333333333333E33FC8
:1058F0009A9999999999C93F10B50446012102F0E6
:105900001FFC0021204602F018FC0649204602F048
:1059100004FC20462822BDE8104003A3002102F029
:10592000D3BB000022970008434B594600000000FB
:105930002DE9F05FFE4E00203070FE48FE494FF426
:105940007A74007800B10870FB48DFF8F0A34FF4D8
:10595000FA58007843F2C82B41F2707542F6F829E4
:10596000012840D1142002F0C3F91E234FF48272A3
:10597000474641465846FEF7EDFA052300225A21D4
:10598000384602F0BFF92823822241F28831584676
:10599000FEF7E0FAFFF7C8F8FEF700FB002705E086
:1059A000012000F00FFE7F1CA74203DAFEF7CCFDBA
:1059B0000028F5D0A7427AD0012001F0A1FF0122F2
:1059C000002147464046FEF721FD1C233C22394674
:1059D00042F21070FEF7BEFA00231A466FF059012A
:1059E000384602F08FF9D4480078022849D11420B3
:1059F00002F07EF923234FF4827229465F4658460F
:105A0000FEF7A8FA00231A468721284602F07AF901
:105A10001E236E2241F288313846FEF79BFAFFF7CB
:105A200083F8FEF7BBFA002705E0012000F0CAFD6D
:105A30007F1CA74203DAFEF787FD0028F5D0A742B6
:105A40006FD0022001F05CFF012200212846FEF702
:105A5000DDFC0820FFF728FE00231A466FF06501E1
:105A6000284602F04FF91E23A022474641465846D9
:105A7000FEF770FA052300226FF02701384602F086
:105A800041F9AD480078032834D100231A462D216E
:105A9000284602F037F928236E2229465846FEF799
:105AA00059FAFFF741F8FEF779FA002706E0F8E027
:105AB000012000F087FD7F1CA74203DAFEF744FDBA
:105AC0000028F5D0A7426BD0032001F019FF012276
:105AD000002147464046FEF799FC1E23DC2239464A
